{
  "address": "0xbC53a05dBEB2c73c4b29822427372df11bc333C4",
  "abi": [
    {
      "inputs": [
        {
          "internalType": "address",
          "name": "_positionManager",
          "type": "address"
        },
        {
          "internalType": "address",
          "name": "_weth",
          "type": "address"
        }
      ],
      "stateMutability": "nonpayable",
      "type": "constructor"
    },
    {
      "inputs": [
        {
          "internalType": "address",
          "name": "owner",
          "type": "address"
        }
      ],
      "name": "OwnableInvalidOwner",
      "type": "error"
    },
    {
      "inputs": [
        {
          "internalType": "address",
          "name": "account",
          "type": "address"
        }
      ],
      "name": "OwnableUnauthorizedAccount",
      "type": "error"
    },
    {
      "anonymous": false,
      "inputs": [
        {
          "indexed": false,
          "internalType": "address",
          "name": "token0",
          "type": "address"
        },
        {
          "indexed": false,
          "internalType": "address",
          "name": "token1",
          "type": "address"
        },
        {
          "indexed": false,
          "internalType": "uint256",
          "name": "tokenId",
          "type": "uint256"
        },
        {
          "indexed": false,
          "internalType": "uint256",
          "name": "multiplier",
          "type": "uint256"
        }
      ],
      "name": "LiquidityCreated",
      "type": "event"
    },
    {
      "anonymous": false,
      "inputs": [
        {
          "indexed": false,
          "internalType": "uint256",
          "name": "tokenId",
          "type": "uint256"
        },
        {
          "indexed": false,
          "internalType": "uint256",
          "name": "unlockTime",
          "type": "uint256"
        }
      ],
      "name": "LiquidityLocked",
      "type": "event"
    },
    {
      "anonymous": false,
      "inputs": [
        {
          "indexed": true,
          "internalType": "address",
          "name": "previousOwner",
          "type": "address"
        },
        {
          "indexed": true,
          "internalType": "address",
          "name": "newOwner",
          "type": "address"
        }
      ],
      "name": "OwnershipTransferred",
      "type": "event"
    },
    {
      "inputs": [
        {
          "internalType": "address",
          "name": "tokenA",
          "type": "address"
        },
        {
          "internalType": "address",
          "name": "tokenB",
          "type": "address"
        },
        {
          "internalType": "uint24",
          "name": "fee",
          "type": "uint24"
        },
        {
          "internalType": "int24",
          "name": "tickLower",
          "type": "int24"
        },
        {
          "internalType": "int24",
          "name": "tickUpper",
          "type": "int24"
        },
        {
          "internalType": "uint256",
          "name": "amountA",
          "type": "uint256"
        },
        {
          "internalType": "uint256",
          "name": "amountB",
          "type": "uint256"
        },
        {
          "internalType": "uint256",
          "name": "lockDuration",
          "type": "uint256"
        }
      ],
      "name": "createLiquidityPool",
      "outputs": [
        {
          "internalType": "uint256",
          "name": "tokenId",
          "type": "uint256"
        }
      ],
      "stateMutability": "payable",
      "type": "function"
    },
    {
      "inputs": [
        {
          "internalType": "uint256",
          "name": "",
          "type": "uint256"
        }
      ],
      "name": "liquidityLocks",
      "outputs": [
        {
          "internalType": "uint256",
          "name": "tokenId",
          "type": "uint256"
        },
        {
          "internalType": "uint256",
          "name": "unlockTime",
          "type": "uint256"
        }
      ],
      "stateMutability": "view",
      "type": "function"
    },
    {
      "inputs": [
        {
          "internalType": "uint256",
          "name": "",
          "type": "uint256"
        }
      ],
      "name": "lockerOf",
      "outputs": [
        {
          "internalType": "address",
          "name": "",
          "type": "address"
        }
      ],
      "stateMutability": "view",
      "type": "function"
    },
    {
      "inputs": [],
      "name": "owner",
      "outputs": [
        {
          "internalType": "address",
          "name": "",
          "type": "address"
        }
      ],
      "stateMutability": "view",
      "type": "function"
    },
    {
      "inputs": [],
      "name": "positionManager",
      "outputs": [
        {
          "internalType": "contract INonfungiblePositionManager",
          "name": "",
          "type": "address"
        }
      ],
      "stateMutability": "view",
      "type": "function"
    },
    {
      "inputs": [],
      "name": "renounceOwnership",
      "outputs": [],
      "stateMutability": "nonpayable",
      "type": "function"
    },
    {
      "inputs": [
        {
          "internalType": "address",
          "name": "newOwner",
          "type": "address"
        }
      ],
      "name": "transferOwnership",
      "outputs": [],
      "stateMutability": "nonpayable",
      "type": "function"
    },
    {
      "inputs": [
        {
          "internalType": "uint256",
          "name": "tokenId",
          "type": "uint256"
        }
      ],
      "name": "unlockLiquidity",
      "outputs": [],
      "stateMutability": "nonpayable",
      "type": "function"
    },
    {
      "inputs": [],
      "name": "weth",
      "outputs": [
        {
          "internalType": "contract IWETH",
          "name": "",
          "type": "address"
        }
      ],
      "stateMutability": "view",
      "type": "function"
    },
    {
      "stateMutability": "payable",
      "type": "receive"
    }
  ],
  "transactionHash": "0x8384a32de58eaabca18a702b8393f3e4bef692b5943c71c1a72c2d879e3f21f8",
  "args": [
    "0x1238536071E1c677A632429e3655c799b22cDA52",
    "0xC02aaA39b223FE8D0A0e5C4F27eAD9083C756Cc2"
  ],
  "numDeployments": 17,
  "solcInputHash": "c11cd53444cfd95bc502582c6c006e76",
  "bytecode": "0x60c03461015057601f61146b38819003918201601f19168301916001600160401b0383118484101761015557808492604094855283398101031261015057610052602061004b8361016b565b920161016b565b9033156101375760008054336001600160a01b0319821681178355604051946001600160a01b0394909385939192918416907f8be0079c531659141344cd1fd0a4f28419497f9722a3daafe3b4186f6b6457e09080a3166080521660a0526112eb9081610180823960805181818161019d0152818161033e0152818161055001528181610635015281816106a10152818161083e01528181610994015281816109f30152610d91015260a0518181816103dd015281816104ef01528181610f5b01528181610f9e01528181610fd0015281816110130152818161106101526111260152f35b604051631e4fbdf760e01b815260006004820152602490fd5b600080fd5b634e487b7160e01b600052604160045260246000fd5b51906001600160a01b03821682036101505756fe608080604052600436101561001d575b50361561001b57600080fd5b005b600090813560e01c908163121cba191461116e57508063308badfc1461040c5780633fc8cef3146103c7578063715018a61461036d578063791b98bc146103285780638da5cb5b1461030157806396e839241461014a578063a76e05f8146101165763f2fde38b0361000f5734610113576020366003190112610113576100a26111a0565b6100aa6111bb565b6001600160a01b039081169081156100fa57600054826001600160601b0360a01b821617600055167f8be0079c531659141344cd1fd0a4f28419497f9722a3daafe3b4186f6b6457e0600080a380f35b604051631e4fbdf760e01b815260048101849052602490fd5b80fd5b5034610113576020366003190112610113576040809160043581526001602052206001815491015482519182526020820152f35b50346101135760208060031936011261024e576004359081835260018152600160408420015480156102c5574210610288578183526002815260408320546001600160a01b0390811633036102525783907f000000000000000000000000000000000000000000000000000000000000000016803b1561024e576040516323b872dd60e01b8152306004820152336024820152604481018590529082908290606490829084905af180156102435761022b575b5091600292526001815282600160408220828155015552604081206001600160601b0360a01b815416905580f35b610234906111e7565b61023f5782386101fd565b8280fd5b6040513d84823e3d90fd5b5080fd5b60405162461bcd60e51b815260048101839052600e60248201526d2737ba103a3432903637b1b5b2b960911b6044820152606490fd5b6064906040519062461bcd60e51b825260048201526016602482015275131a5c5d5a591a5d1e481cdd1a5b1b081b1bd8dad95960521b6044820152fd5b60405162461bcd60e51b8152600481018390526014602482015273131a5c5d5a591a5d1e481b9bdd081b1bd8dad95960621b6044820152606490fd5b5034610113578060031936011261011357546040516001600160a01b039091168152602090f35b50346101135780600319360112610113576040517f00000000000000000000000000000000000000000000000000000000000000006001600160a01b03168152602090f35b50346101135780600319360112610113576103866111bb565b600080546001600160a01b0319811682556001600160a01b03167f8be0079c531659141344cd1fd0a4f28419497f9722a3daafe3b4186f6b6457e08280a380f35b50346101135780600319360112610113576040517f00000000000000000000000000000000000000000000000000000000000000006001600160a01b03168152602090f35b50610100366003190112610113576104226111a0565b6024356001600160a01b038116810361023f5760443562ffffff8116810361116a57606435928360020b840361116657608435908160020b820361116257604051938461010081011067ffffffffffffffff6101008701111761114e5761010085016040528685528660208601528660408601528660608601528660808601528660a08601528660c08601528660e086015260a4359060c4359234610f91575b6001600160a01b0390811691908116821015610f44578187526001600160a01b03908116602088018190527f000000000000000000000000000000000000000000000000000000000000000090911680831460c08901521460e08701525b85516001600160a01b031603610f3457604085015260608401525b60405163c45a015560e01b81526020816004817f00000000000000000000000000000000000000000000000000000000000000006001600160a01b03165afa908115610ae0578691610f15575b508351602085810151604051630b4c774160e11b81526001600160a01b039384166004820152908316602482015262ffffff8616604482015292909183916064918391165afa908115610ae0578691610ef6575b506001600160a01b03166080840181905215610c7e575b60c0830151158015610c76575b610bc5575b60e0830151158015610bbd575b610b0a575b8251604080850151905163095ea7b360e01b81526001600160a01b037f000000000000000000000000000000000000000000000000000000000000000081166004830152602482019290925291602091839160449183918b91165af18015610ae057610aeb575b50602083810151606085015160405163095ea7b360e01b81526001600160a01b037f00000000000000000000000000000000000000000000000000000000000000008116600483015260248201929092529291839160449183918b91165af18015610ae057610ab1575b5082516020840151604085015160608601516001600160a01b03928316979095919493909216904261012c810110610a9d57604051978861016081011067ffffffffffffffff6101608b0111176109785762ffffff926101608a016040528952602089015216604087015260020b606086015260020b608085015260a084015260c08301528260e0830152826101008301523061012083015261012c420161014083015261014060405192634418b22b60e11b845260018060a01b03815116600485015260018060a01b03602082015116602485015262ffffff6040820151166044850152606081015160020b6064850152608081015160020b608485015260a081015160a485015260c081015160c485015260e081015160e485015261010081015161010485015260018060a01b03610120820151166101248501520151610144830152608082610164818660018060a01b037f0000000000000000000000000000000000000000000000000000000000000000165af1918215610a92578392610a40575b507fac214433e76e20d8f6190bc86fc9f445a27e707c7602379a095289b6cf423549608060018060a01b0383511660018060a01b03602085015116604051918252602082015284604082015260016060820152a160a0810182905260e43592831561098e576108dd84426112a8565b92604051906040820182811067ffffffffffffffff8211176109785760209660407fcb75aa8347c098d414422e8cafbbe4e2c1a229f5b27bf425984b2b9792aa787a958195600160a09a6109639685528783528c8301908152878452818d52848420925183555191015560028a5220336001600160601b03891b825416179055426112a8565b825191825286820152a15b0151604051908152f35b634e487b7160e01b600052604160045260246000fd5b909250907f00000000000000000000000000000000000000000000000000000000000000006001600160a01b03163b1561024e576040516323b872dd60e01b815230600482015233602482015260448101919091528181606481836001600160a01b037f0000000000000000000000000000000000000000000000000000000000000000165af1801561024357610a2c575b505060a060209161096e565b610a3682916111e7565b6101135780610a20565b9091506080813d608011610a8a575b81610a5c608093836111fb565b8101031261023f57602081519101516fffffffffffffffffffffffffffffffff81160361023f57903861086e565b3d9150610a4f565b6040513d85823e3d90fd5b634e487b7160e01b89526011600452602489fd5b610ad29060203d602011610ad9575b610aca81836111fb565b810190611255565b50386106e8565b503d610ac0565b6040513d88823e3d90fd5b610b039060203d602011610ad957610aca81836111fb565b503861067e565b602083810151606085015160405163a9059cbb60e01b815230600482015260248101919091529190829060449082908a906001600160a01b03165af1908115610ae0578691610b9e575b506106175760405162461bcd60e51b815260206004820152601960248201527f5472616e73666572206f6620746f6b656e31206661696c6564000000000000006044820152606490fd5b610bb7915060203d602011610ad957610aca81836111fb565b38610b54565b503415610612565b8251604080850151905163a9059cbb60e01b8152306004820152602481019190915290602090829060449082908a906001600160a01b03165af1908115610ae0578691610c57575b506106055760405162461bcd60e51b815260206004820152601960248201527f5472616e73666572206f6620746f6b656e30206661696c6564000000000000006044820152606490fd5b610c70915060203d602011610ad957610aca81836111fb565b38610c0d565b503415610600565b60405180606081011067ffffffffffffffff60608301111761097857606081016040528581528560208201528560408201526004602060018060a01b038651166040519283809263313ce56760e01b82525afa8015610ecc5760ff918891610ed7575b5016815260208481015160405163313ce56760e01b81529190829060049082906001600160a01b03165afa8015610ecc5760ff918891610e9d575b501680602083015260ff825116818114600014610df3575050600160601b60408201525b835160208086015160409384015193516309f56ab160e11b81526001600160a01b039384166004820152908316602482015262ffffff86166044820152928216606484015290829060849082908a907f0000000000000000000000000000000000000000000000000000000000000000165af18015610ae057610dc4575b506105f3565b610de59060203d602011610dec575b610ddd81836111fb565b81019061121d565b5038610dbe565b503d610dd3565b81811115610e5b575050610e21607f610e1860ff84511660ff6020860151169061126d565b60011c16611297565b6001600160a01b0381168103610e475760601b6001600160a01b03166040820152610d40565b634e487b7160e01b87526011600452602487fd5b610e18607f91610e6a9361126d565b8015610e8957600160601b046001600160a01b03166040820152610d40565b634e487b7160e01b87526012600452602487fd5b610ebf915060203d602011610ec5575b610eb781836111fb565b81019061123c565b38610d1c565b503d610ead565b6040513d89823e3d90fd5b610ef0915060203d602011610ec557610eb781836111fb565b38610ce1565b610f0f915060203d602011610dec57610ddd81836111fb565b386105dc565b610f2e915060203d602011610dec57610ddd81836111fb565b38610588565b906040850152606084015261053b565b6001600160a01b03908116808852602088018390527f000000000000000000000000000000000000000000000000000000000000000090911690811460c0880152811460e0870152610520565b6001600160a01b038181167f000000000000000000000000000000000000000000000000000000000000000090911614808015611118575b156110d3577f00000000000000000000000000000000000000000000000000000000000000006001600160a01b03163b156110cf57604051630d0e30db60e41b81528a81600481347f00000000000000000000000000000000000000000000000000000000000000006001600160a01b03165af180156110c4576110b1575b50806110a8575b6110a0575b6001600160a01b038281167f00000000000000000000000000000000000000000000000000000000000000009091161480611097575b156104c2573493506104c2565b5083341161108a565b349250611054565b5082341161104f565b6110bd909a919a6111e7565b9838611048565b6040513d8d823e3d90fd5b8980fd5b60405162461bcd60e51b815260206004820152601760248201527f455448206f6e6c7920666f7220574554482070616972730000000000000000006044820152606490fd5b506001600160a01b038381167f000000000000000000000000000000000000000000000000000000000000000090911614610fc9565b634e487b7160e01b87526041600452602487fd5b8580fd5b8480fd5b8380fd5b90503461024e57602036600319011261024e576004358252600260209081526040909220546001600160a01b03168152f35b600435906001600160a01b03821682036111b657565b600080fd5b6000546001600160a01b031633036111cf57565b60405163118cdaa760e01b8152336004820152602490fd5b67ffffffffffffffff811161097857604052565b90601f8019910116810190811067ffffffffffffffff82111761097857604052565b908160209103126111b657516001600160a01b03811681036111b65790565b908160209103126111b6575160ff811681036111b65790565b908160209103126111b6575180151581036111b65790565b9060ff8091169116039060ff821161128157565b634e487b7160e01b600052601160045260246000fd5b60ff16604d811161128157600a0a90565b919082018092116112815756fea264697066735822122014adf4edfc5f4023d903a2148fbb54a3024d62fe01724e829588fb229b5ba02f64736f6c63430008140033",
  "devdoc": {
    "errors": {
      "OwnableInvalidOwner(address)": [
        {
          "details": "The owner is not a valid owner account. (eg. `address(0)`)"
        }
      ],
      "OwnableUnauthorizedAccount(address)": [
        {
          "details": "The caller account is not authorized to perform an operation."
        }
      ]
    },
    "kind": "dev",
    "methods": {
      "owner()": {
        "details": "Returns the address of the current owner."
      },
      "renounceOwnership()": {
        "details": "Leaves the contract without owner. It will not be possible to call `onlyOwner` functions. Can only be called by the current owner. NOTE: Renouncing ownership will leave the contract without an owner, thereby disabling any functionality that is only available to the owner."
      },
      "transferOwnership(address)": {
        "details": "Transfers ownership of the contract to a new account (`newOwner`). Can only be called by the current owner."
      }
    },
    "version": 1
  },
  "userdoc": {
    "kind": "user",
    "methods": {},
    "version": 1
  },
  "storageLayout": {
    "storage": [
      {
        "astId": 8,
        "contract": "contracts/extensions/LiquidityManager.sol:LiquidityManager",
        "label": "_owner",
        "offset": 0,
        "slot": "0",
        "type": "t_address"
      },
      {
        "astId": 2530,
        "contract": "contracts/extensions/LiquidityManager.sol:LiquidityManager",
        "label": "liquidityLocks",
        "offset": 0,
        "slot": "1",
        "type": "t_mapping(t_uint256,t_struct(LockInfo)2501_storage)"
      },
      {
        "astId": 2534,
        "contract": "contracts/extensions/LiquidityManager.sol:LiquidityManager",
        "label": "lockerOf",
        "offset": 0,
        "slot": "2",
        "type": "t_mapping(t_uint256,t_address)"
      }
    ],
    "types": {
      "t_address": {
        "encoding": "inplace",
        "label": "address",
        "numberOfBytes": "20"
      },
      "t_mapping(t_uint256,t_address)": {
        "encoding": "mapping",
        "key": "t_uint256",
        "label": "mapping(uint256 => address)",
        "numberOfBytes": "32",
        "value": "t_address"
      },
      "t_mapping(t_uint256,t_struct(LockInfo)2501_storage)": {
        "encoding": "mapping",
        "key": "t_uint256",
        "label": "mapping(uint256 => struct LiquidityManager.LockInfo)",
        "numberOfBytes": "32",
        "value": "t_struct(LockInfo)2501_storage"
      },
      "t_struct(LockInfo)2501_storage": {
        "encoding": "inplace",
        "label": "struct LiquidityManager.LockInfo",
        "members": [
          {
            "astId": 2498,
            "contract": "contracts/extensions/LiquidityManager.sol:LiquidityManager",
            "label": "tokenId",
            "offset": 0,
            "slot": "0",
            "type": "t_uint256"
          },
          {
            "astId": 2500,
            "contract": "contracts/extensions/LiquidityManager.sol:LiquidityManager",
            "label": "unlockTime",
            "offset": 0,
            "slot": "1",
            "type": "t_uint256"
          }
        ],
        "numberOfBytes": "64"
      },
      "t_uint256": {
        "encoding": "inplace",
        "label": "uint256",
        "numberOfBytes": "32"
      }
    }
  }
}