{
  "address": "0x0422E8419Fa33a975c5923Ab90fd5269d6A734dA",
  "abi": [
    {
      "inputs": [
        {
          "internalType": "string",
          "name": "name",
          "type": "string"
        },
        {
          "internalType": "string",
          "name": "symbol",
          "type": "string"
        },
        {
          "internalType": "uint8",
          "name": "decimals",
          "type": "uint8"
        },
        {
          "internalType": "uint256",
          "name": "totalSupply",
          "type": "uint256"
        },
        {
          "internalType": "address",
          "name": "_initialOwner",
          "type": "address"
        },
        {
          "internalType": "address[4]",
          "name": "initialHolders",
          "type": "address[4]"
        },
        {
          "internalType": "uint256[4]",
          "name": "initialAmounts",
          "type": "uint256[4]"
        },
        {
          "internalType": "bool",
          "name": "enableAntiBot",
          "type": "bool"
        },
        {
          "internalType": "uint256",
          "name": "maxTxAmount",
          "type": "uint256"
        },
        {
          "internalType": "uint256",
          "name": "maxWalletAmount",
          "type": "uint256"
        }
      ],
      "stateMutability": "nonpayable",
      "type": "constructor"
    },
    {
      "inputs": [
        {
          "internalType": "address",
          "name": "spender",
          "type": "address"
        },
        {
          "internalType": "uint256",
          "name": "allowance",
          "type": "uint256"
        },
        {
          "internalType": "uint256",
          "name": "needed",
          "type": "uint256"
        }
      ],
      "name": "ERC20InsufficientAllowance",
      "type": "error"
    },
    {
      "inputs": [
        {
          "internalType": "address",
          "name": "sender",
          "type": "address"
        },
        {
          "internalType": "uint256",
          "name": "balance",
          "type": "uint256"
        },
        {
          "internalType": "uint256",
          "name": "needed",
          "type": "uint256"
        }
      ],
      "name": "ERC20InsufficientBalance",
      "type": "error"
    },
    {
      "inputs": [
        {
          "internalType": "address",
          "name": "approver",
          "type": "address"
        }
      ],
      "name": "ERC20InvalidApprover",
      "type": "error"
    },
    {
      "inputs": [
        {
          "internalType": "address",
          "name": "receiver",
          "type": "address"
        }
      ],
      "name": "ERC20InvalidReceiver",
      "type": "error"
    },
    {
      "inputs": [
        {
          "internalType": "address",
          "name": "sender",
          "type": "address"
        }
      ],
      "name": "ERC20InvalidSender",
      "type": "error"
    },
    {
      "inputs": [
        {
          "internalType": "address",
          "name": "spender",
          "type": "address"
        }
      ],
      "name": "ERC20InvalidSpender",
      "type": "error"
    },
    {
      "inputs": [
        {
          "internalType": "address",
          "name": "owner",
          "type": "address"
        }
      ],
      "name": "OwnableInvalidOwner",
      "type": "error"
    },
    {
      "inputs": [
        {
          "internalType": "address",
          "name": "account",
          "type": "address"
        }
      ],
      "name": "OwnableUnauthorizedAccount",
      "type": "error"
    },
    {
      "anonymous": false,
      "inputs": [
        {
          "indexed": false,
          "internalType": "bool",
          "name": "enabled",
          "type": "bool"
        },
        {
          "indexed": false,
          "internalType": "uint256",
          "name": "maxTxAmount",
          "type": "uint256"
        },
        {
          "indexed": false,
          "internalType": "uint256",
          "name": "maxWalletAmount",
          "type": "uint256"
        }
      ],
      "name": "AntiBotConfigUpdated",
      "type": "event"
    },
    {
      "anonymous": false,
      "inputs": [
        {
          "indexed": true,
          "internalType": "address",
          "name": "owner",
          "type": "address"
        },
        {
          "indexed": true,
          "internalType": "address",
          "name": "spender",
          "type": "address"
        },
        {
          "indexed": false,
          "internalType": "uint256",
          "name": "value",
          "type": "uint256"
        }
      ],
      "name": "Approval",
      "type": "event"
    },
    {
      "anonymous": false,
      "inputs": [
        {
          "indexed": true,
          "internalType": "address",
          "name": "contractAddr",
          "type": "address"
        },
        {
          "indexed": false,
          "internalType": "bool",
          "name": "trusted",
          "type": "bool"
        },
        {
          "indexed": false,
          "internalType": "bool",
          "name": "blocked",
          "type": "bool"
        }
      ],
      "name": "ContractStatusChanged",
      "type": "event"
    },
    {
      "anonymous": false,
      "inputs": [],
      "name": "InitialDistributionComplete",
      "type": "event"
    },
    {
      "anonymous": false,
      "inputs": [
        {
          "indexed": true,
          "internalType": "address",
          "name": "previousOwner",
          "type": "address"
        },
        {
          "indexed": true,
          "internalType": "address",
          "name": "newOwner",
          "type": "address"
        }
      ],
      "name": "OwnershipTransferred",
      "type": "event"
    },
    {
      "anonymous": false,
      "inputs": [
        {
          "indexed": false,
          "internalType": "bool",
          "name": "paused",
          "type": "bool"
        }
      ],
      "name": "SecuritySettingsUpdated",
      "type": "event"
    },
    {
      "anonymous": false,
      "inputs": [
        {
          "indexed": false,
          "internalType": "uint256",
          "name": "timestamp",
          "type": "uint256"
        }
      ],
      "name": "TradingEnabled",
      "type": "event"
    },
    {
      "anonymous": false,
      "inputs": [
        {
          "indexed": true,
          "internalType": "address",
          "name": "from",
          "type": "address"
        },
        {
          "indexed": true,
          "internalType": "address",
          "name": "to",
          "type": "address"
        },
        {
          "indexed": false,
          "internalType": "uint256",
          "name": "value",
          "type": "uint256"
        }
      ],
      "name": "Transfer",
      "type": "event"
    },
    {
      "inputs": [
        {
          "internalType": "address",
          "name": "owner",
          "type": "address"
        },
        {
          "internalType": "address",
          "name": "spender",
          "type": "address"
        }
      ],
      "name": "allowance",
      "outputs": [
        {
          "internalType": "uint256",
          "name": "",
          "type": "uint256"
        }
      ],
      "stateMutability": "view",
      "type": "function"
    },
    {
      "inputs": [
        {
          "internalType": "address",
          "name": "spender",
          "type": "address"
        },
        {
          "internalType": "uint256",
          "name": "value",
          "type": "uint256"
        }
      ],
      "name": "approve",
      "outputs": [
        {
          "internalType": "bool",
          "name": "",
          "type": "bool"
        }
      ],
      "stateMutability": "nonpayable",
      "type": "function"
    },
    {
      "inputs": [
        {
          "internalType": "address",
          "name": "account",
          "type": "address"
        }
      ],
      "name": "balanceOf",
      "outputs": [
        {
          "internalType": "uint256",
          "name": "",
          "type": "uint256"
        }
      ],
      "stateMutability": "view",
      "type": "function"
    },
    {
      "inputs": [],
      "name": "decimals",
      "outputs": [
        {
          "internalType": "uint8",
          "name": "",
          "type": "uint8"
        }
      ],
      "stateMutability": "view",
      "type": "function"
    },
    {
      "inputs": [],
      "name": "enableTrading",
      "outputs": [],
      "stateMutability": "nonpayable",
      "type": "function"
    },
    {
      "inputs": [
        {
          "internalType": "address",
          "name": "account",
          "type": "address"
        },
        {
          "internalType": "bool",
          "name": "excluded",
          "type": "bool"
        }
      ],
      "name": "excludeFromLimits",
      "outputs": [],
      "stateMutability": "nonpayable",
      "type": "function"
    },
    {
      "inputs": [
        {
          "internalType": "address",
          "name": "",
          "type": "address"
        }
      ],
      "name": "isExcludedFromLimits",
      "outputs": [
        {
          "internalType": "bool",
          "name": "",
          "type": "bool"
        }
      ],
      "stateMutability": "view",
      "type": "function"
    },
    {
      "inputs": [],
      "name": "launchBlock",
      "outputs": [
        {
          "internalType": "uint256",
          "name": "",
          "type": "uint256"
        }
      ],
      "stateMutability": "view",
      "type": "function"
    },
    {
      "inputs": [],
      "name": "launchTime",
      "outputs": [
        {
          "internalType": "uint256",
          "name": "",
          "type": "uint256"
        }
      ],
      "stateMutability": "view",
      "type": "function"
    },
    {
      "inputs": [],
      "name": "name",
      "outputs": [
        {
          "internalType": "string",
          "name": "",
          "type": "string"
        }
      ],
      "stateMutability": "view",
      "type": "function"
    },
    {
      "inputs": [],
      "name": "owner",
      "outputs": [
        {
          "internalType": "address",
          "name": "",
          "type": "address"
        }
      ],
      "stateMutability": "view",
      "type": "function"
    },
    {
      "inputs": [],
      "name": "renounceOwnership",
      "outputs": [],
      "stateMutability": "nonpayable",
      "type": "function"
    },
    {
      "inputs": [
        {
          "internalType": "bool",
          "name": "enabled",
          "type": "bool"
        }
      ],
      "name": "setAntiBotEnabled",
      "outputs": [],
      "stateMutability": "nonpayable",
      "type": "function"
    },
    {
      "inputs": [
        {
          "internalType": "address",
          "name": "contractAddr",
          "type": "address"
        },
        {
          "internalType": "bool",
          "name": "trusted",
          "type": "bool"
        },
        {
          "internalType": "bool",
          "name": "blocked",
          "type": "bool"
        }
      ],
      "name": "setContractStatus",
      "outputs": [],
      "stateMutability": "nonpayable",
      "type": "function"
    },
    {
      "inputs": [
        {
          "internalType": "uint256",
          "name": "amount",
          "type": "uint256"
        }
      ],
      "name": "setMaxTxAmount",
      "outputs": [],
      "stateMutability": "nonpayable",
      "type": "function"
    },
    {
      "inputs": [
        {
          "internalType": "uint256",
          "name": "amount",
          "type": "uint256"
        }
      ],
      "name": "setMaxWalletAmount",
      "outputs": [],
      "stateMutability": "nonpayable",
      "type": "function"
    },
    {
      "inputs": [],
      "name": "symbol",
      "outputs": [
        {
          "internalType": "string",
          "name": "",
          "type": "string"
        }
      ],
      "stateMutability": "view",
      "type": "function"
    },
    {
      "inputs": [],
      "name": "totalSupply",
      "outputs": [
        {
          "internalType": "uint256",
          "name": "",
          "type": "uint256"
        }
      ],
      "stateMutability": "view",
      "type": "function"
    },
    {
      "inputs": [],
      "name": "tradingEnabled",
      "outputs": [
        {
          "internalType": "bool",
          "name": "",
          "type": "bool"
        }
      ],
      "stateMutability": "view",
      "type": "function"
    },
    {
      "inputs": [
        {
          "internalType": "address",
          "name": "to",
          "type": "address"
        },
        {
          "internalType": "uint256",
          "name": "value",
          "type": "uint256"
        }
      ],
      "name": "transfer",
      "outputs": [
        {
          "internalType": "bool",
          "name": "",
          "type": "bool"
        }
      ],
      "stateMutability": "nonpayable",
      "type": "function"
    },
    {
      "inputs": [
        {
          "internalType": "address",
          "name": "from",
          "type": "address"
        },
        {
          "internalType": "address",
          "name": "to",
          "type": "address"
        },
        {
          "internalType": "uint256",
          "name": "value",
          "type": "uint256"
        }
      ],
      "name": "transferFrom",
      "outputs": [
        {
          "internalType": "bool",
          "name": "",
          "type": "bool"
        }
      ],
      "stateMutability": "nonpayable",
      "type": "function"
    },
    {
      "inputs": [
        {
          "internalType": "address",
          "name": "newOwner",
          "type": "address"
        }
      ],
      "name": "transferOwnership",
      "outputs": [],
      "stateMutability": "nonpayable",
      "type": "function"
    },
    {
      "inputs": [
        {
          "internalType": "bool",
          "name": "paused",
          "type": "bool"
        }
      ],
      "name": "updatePauseStatus",
      "outputs": [],
      "stateMutability": "nonpayable",
      "type": "function"
    },
    {
      "inputs": [
        {
          "internalType": "address",
          "name": "manager",
          "type": "address"
        }
      ],
      "name": "whitelistLiquidityManager",
      "outputs": [],
      "stateMutability": "nonpayable",
      "type": "function"
    }
  ],
  "transactionHash": "0xfd3a2152d5832ac4bb8698a5f6f611309b3d4767af3bff096590de5ea5b6d695",
  "args": [
    "Template Token 2",
    "TMPL2",
    18,
    "1000000000000000000000000",
    "0xae6009Dd36eBBE2d36DBEBA64004e31517Cc48BB",
    [
      "0xb174659C69bC97b7D1Be4d8012d80cD0A374194e",
      "0xEa4d95CC1c1bB90d398bEd9DdF5dAE3D64b85f6B",
      "0xF8dA925Da2695c484b687c236A1e5beCB9F3F81C",
      "0xba884a1a579288680af80092974ae308384D3588"
    ],
    [
      "100000000000000000000",
      "200000000000000000000",
      "500000000000000000000",
      "1000000000000000000000"
    ],
    true,
    "10000000000000000000000",
    "20000000000000000000000"
  ],
  "numDeployments": 19,
  "solcInputHash": "1cf4d539634d26b350cba92da35b7018",
  "bytecode": "0x608060405234620006b75762001d7f803803806200001d8162000708565b92833981019061020081830312620006b75780516001600160401b038111620006b757826200004e9183016200072e565b60208201519092906001600160401b038111620006b75781620000739184016200072e565b9260408301519260ff84168403620006b7576060810151906200009960808201620007a0565b948460bf83011215620006b757620000b0620006e8565b968795610120840198818a11620006b75760a08501905b8a8210620006cd5750508061013f85011215620006b757620000e8620006e8565b80996101a08601928311620006b757905b828210620006bc5750505180151503620006b7576101c08301516101e090930151855190956001600160401b038211620005865760035490600182811c92168015620006ac575b6020831014620005655781601f84931162000637575b50602090601f8311600114620005a8576000926200059c575b50508160011b916000199060031b1c1916176003555b8051906001600160401b038211620005865760045490600182811c921680156200057b575b6020831014620005655781601f849311620004f3575b50602090601f831160011462000468576000926200045c575b50508160011b916000199060031b1c1916176004555b6001600160a01b0395861680156200044357600580546001600160a01b03198116831790915587167f8be0079c531659141344cd1fd0a4f28419497f9722a3daafe3b4186f6b6457e0600080a3600162ffffff19600d541617600d55604d60ff821611620003a95760ff16600a0a938483029683159584890414861715620003a95733159788620003fb57620002869033620007dd565b60ff1997886008541660085560005b6004811062000378575050505060018660085416176008557e91797718383457eafcb8600ff903ce41cd8e28b20bc5a8df996532910b85dd600080a160008115620003595750925b60009083156200032457505050905b8360095416600955600a55600b556005541660005260106020526001604060002091825416179055604051611108908162000c578239f35b909192506014830292830460141417156200034557506064900490620002ec565b634e487b7160e01b81526011600452602490fd5b600a8381029250838304148517156200034557506064900492620002dd565b88620003858286620007b5565b51161515806200042d575b620003bf575b6000198114620003a95760010162000295565b634e487b7160e01b600052601160045260246000fd5b88620003cc8286620007b5565b511682620003db8386620007b5565b519062000414578115620003fb57620003f5913362000963565b62000396565b60405163ec442f0560e01b815260006004820152602490fd5b604051634b637e8f60e11b815260006004820152602490fd5b506200043a8184620007b5565b51151562000390565b604051631e4fbdf760e01b815260006004820152602490fd5b015190503880620001d9565b600460009081527f8a35acfbc15ff81a39ae7d344fd709f28e8600b4aa8c65c6b64bfe7fe36bd19b9350601f198516905b818110620004da5750908460019594939210620004c0575b505050811b01600455620001ef565b015160001960f88460031b161c19169055388080620004b1565b9293602060018192878601518155019501930162000499565b60046000529091507f8a35acfbc15ff81a39ae7d344fd709f28e8600b4aa8c65c6b64bfe7fe36bd19b601f840160051c8101602085106200055d575b90849392915b601f830160051c820181106200054d575050620001c0565b6000815585945060010162000535565b50806200052f565b634e487b7160e01b600052602260045260246000fd5b91607f1691620001aa565b634e487b7160e01b600052604160045260246000fd5b0151905038806200016f565b6003600090815293507fc2575a0e9e593c00f959f8c92f12db2869c3395a3b0502d05e2516446f71f85b91905b601f19841685106200061b576001945083601f1981161062000601575b505050811b0160035562000185565b015160001960f88460031b161c19169055388080620005f2565b81810151835560209485019460019093019290910190620005d5565b60036000529091507fc2575a0e9e593c00f959f8c92f12db2869c3395a3b0502d05e2516446f71f85b601f840160051c81019160208510620006a1575b90601f859493920160051c01905b81811062000691575062000156565b6000815584935060010162000682565b909150819062000674565b91607f169162000140565b600080fd5b8151815260209182019101620000f9565b60208091620006dc84620007a0565b815201910190620000c7565b60405190608082016001600160401b038111838210176200058657604052565b6040519190601f01601f191682016001600160401b038111838210176200058657604052565b919080601f84011215620006b75782516001600160401b038111620005865760209062000764601f8201601f1916830162000708565b92818452828287010111620006b75760005b8181106200078c57508260009394955001015290565b858101830151848201840152820162000776565b51906001600160a01b0382168203620006b757565b906004811015620007c75760051b0190565b634e487b7160e01b600052603260045260246000fd5b6005546001600160a01b039291908316801590811562000956575b50801562000921575b801562000906575b8015620008f8575b620008ec5760ff600d5460081c16620008b45760ff60055460a01c16156200086f576200084b9260ff600954166200084d575b5062000a63565b565b81166000526000602052620008686040600020548362000b91565b3862000844565b60405162461bcd60e51b815260206004820152601360248201527f54726164696e67206e6f7420656e61626c6564000000000000000000000000006044820152606490fd5b60405162461bcd60e51b815260206004820152601060248201526f151c985b9cd9995c9cc81c185d5cd95960821b6044820152606490fd5b6200084b925062000a63565b5060ff600854161562000811565b50828116600052601060205260ff6040600020541662000809565b506000805260106020527f6e0956cda88cad152e89927e53611735b61a5c762d1428573c6931b0a5efcb015460ff1662000801565b90508382161438620007f8565b6005546001600160a01b0393929190841681851681811491821562000a48575b50811562000a2e575b50801562000a13575b801562000a05575b620009f95760ff600d5460081c16620008b45760ff60055460a01c16156200086f576200084b9360ff60095416620009d7575b5062000ac4565b82166000526000602052620009f26040600020548462000b91565b38620009d0565b6200084b935062000ac4565b5060ff60085416156200099d565b50838216600052601060205260ff6040600020541662000995565b9050600052601060205260ff60406000205416386200098c565b8487161491503862000983565b91908201809211620003a957565b60008051602062001d5f833981519152602060009262000a868560025462000a55565b6002556001600160a01b0316938415841462000aae5780600254036002555b604051908152a3565b8484528382526040842081815401905562000aa5565b6001600160a01b03908116918262000b2e5760008051602062001d5f8339815191529160209162000af88660025462000a55565b6002555b16938462000b15578060025403600255604051908152a3565b8460005260008252604060002081815401905562000aa5565b600083815280602052604081205485811062000b6d5791816040876020958860008051602062001d5f8339815191529896528387520391205562000afc565b84866064926040519263391434e360e21b8452600484015260248301526044820152fd5b60ff600954161562000c5257600a54811162000c025762000bb29162000a55565b600b541062000bbd57565b60405162461bcd60e51b815260206004820152601d60248201527f5472616e7366657220657863656564732077616c6c6574206c696d69740000006044820152606490fd5b60405162461bcd60e51b815260206004820152602260248201527f5472616e736665722065786365656473207472616e73616374696f6e206c696d6044820152611a5d60f21b6064820152608490fd5b505056fe6080604081815260048036101561001557600080fd5b600092833560e01c90816306fdde0314610b9157508063087c801e14610aaa578063095ea7b314610a0157806318160ddd146109e257806321cd0c401461096457806323b872dd1461087157806327a14fc214610806578063313ce567146107ea5780634ada218b146107c35780635cce86cd1461078557806370a082311461074e578063715018a6146106ee578063790ca413146106cf57806382e77033146105d15780638a8c523c1461051d5780638da5cb5b146104f457806395d89b41146103d4578063a9059cbb146103a3578063bc6e6830146102ec578063c0a904a214610297578063d00efb2f14610278578063dd62ed3e1461022b578063ec28438a146101bd5763f2fde38b1461012b57600080fd5b346101b95760203660031901126101b957610144610ccf565b9061014d610d1e565b6001600160a01b039182169283156101a3575050600554826bffffffffffffffffffffffff60a01b821617600555167f8be0079c531659141344cd1fd0a4f28419497f9722a3daafe3b4186f6b6457e08380a380f35b51631e4fbdf760e01b8152908101849052602490fd5b8280fd5b5090346101b95760203660031901126101b9577fc9ffa505747a3c108090b40659cba1242a299c3d8d627a8011ba3563b270692a9135906101fc610d1e565b600a829055600954600b54915160ff909116151581526020810192909252604082015280606081015b0390a180f35b50503461027457806003193601126102745780602092610249610ccf565b610251610cea565b6001600160a01b0391821683526001865283832091168252845220549051908152f35b5080fd5b5050346102745781600319360112610274576020906007549051908152f35b5050346102745780600319360112610274576102e9906102b5610ccf565b906102be610d0f565b916102c7610d1e565b60018060a01b03168452601060205283209060ff801983541691151516179055565b80f35b5090346101b95760203660031901126101b957610307610d00565b61030f610d1e565b600d549260ff8416156103605750916020917fd4ba2862d83da5f401c3329c66575d96bbe491e12fbce1ab1749180968e7a9289315159161ff008360081b169061ff00191617600d5551908152a180f35b606490602084519162461bcd60e51b8352820152601860248201527f436f6e7472616374206973206e6f74207061757361626c6500000000000000006044820152fd5b5050346102745780600319360112610274576020906103cd6103c3610ccf565b6024359033610d4a565b5160018152f35b50919034610274578160031936011261027457805190828454600181811c908083169283156104ea575b60209384841081146104d7578388529081156104bb5750600114610466575b505050829003601f01601f191682019267ffffffffffffffff841183851017610453575082918261044f925282610c86565b0390f35b634e487b7160e01b815260418552602490fd5b8787529192508591837f8a35acfbc15ff81a39ae7d344fd709f28e8600b4aa8c65c6b64bfe7fe36bd19b5b8385106104a7575050505083010138808061041d565b805488860183015293019284908201610491565b60ff1916878501525050151560051b840101905038808061041d565b634e487b7160e01b895260228a52602489fd5b91607f16916103fe565b50503461027457816003193601126102745760055490516001600160a01b039091168152602090f35b50346101b957826003193601126101b957610536610d1e565b6005549060ff8260a01c1661058e575060ff60a01b1916600160a01b176005554260068190554360075590519081527fb3da2db3dfc3778f99852546c6e9ab39ec253f9de7b0847afec61bd27878e92390602090a180f35b606490602084519162461bcd60e51b8352820152601760248201527f54726164696e6720616c726561647920656e61626c65640000000000000000006044820152fd5b50829034610274576060366003190112610274576105ed610ccf565b926105f6610d0f565b60443592831515908185036106cb5761060d610d1e565b863b1561068c57506001600160a01b0395909516808552600f602052828520805460ff191660ff8415151617905593947ff09ba3be2b2384879395cf65ff434b177b3810bbb1829bd988a3c821064086559361067c90600e6020528488209060ff801983541691151516179055565b825191151582526020820152a280f35b606490602085519162461bcd60e51b835282015260196024820152781059191c995cdcc81a5cc81b9bdd08184818dbdb9d1c9858dd603a1b6044820152fd5b8580fd5b5050346102745781600319360112610274576020906006549051908152f35b833461074b578060031936011261074b57610707610d1e565b600580546001600160a01b0319811690915581906001600160a01b03167f8be0079c531659141344cd1fd0a4f28419497f9722a3daafe3b4186f6b6457e08280a380f35b80fd5b5050346102745760203660031901126102745760209181906001600160a01b03610776610ccf565b16815280845220549051908152f35b5050346102745760203660031901126102745760209160ff9082906001600160a01b036107b0610ccf565b1681526010855220541690519015158152f35b50503461027457816003193601126102745760209060ff60055460a01c1690519015158152f35b5050346102745781600319360112610274576020905160128152f35b5090346101b95760203660031901126101b9577fc9ffa505747a3c108090b40659cba1242a299c3d8d627a8011ba3563b270692a9135610844610d1e565b600b819055600954600a54925160ff90911615158152602081019290925260408201528060608101610225565b50823461074b57606036600319011261074b5761088c610ccf565b610894610cea565b916044359360018060a01b0383168083526001602052868320338452602052868320549160001983106108d0575b6020886103cd898989610d4a565b86831061093857811561092157331561090a575082526001602090815286832033845281529186902090859003905582906103cd876108c2565b8751634a1406b160e11b8152908101849052602490fd5b875163e602df0560e01b8152908101849052602490fd5b8751637dc7a0d960e11b8152339181019182526020820193909352604081018790528291506060010390fd5b505034610274576020366003190112610274577fc9ffa505747a3c108090b40659cba1242a299c3d8d627a8011ba3563b270692a906109a1610d00565b6109a9610d1e565b60ff196009541660ff8215151617600955610225600a5492600b5490519384938460409194939260608201951515825260208201520152565b5050346102745781600319360112610274576020906002549051908152f35b50346101b957816003193601126101b957610a1a610ccf565b602435903315610a93576001600160a01b0316918215610a7c57508083602095338152600187528181208582528752205582519081527f8c5be1e5ebec7d5bd14f71427d1e84f3dd0314c0f7b2291e5b200ac8c7c3b925843392a35160018152f35b8351634a1406b160e11b8152908101859052602490fd5b835163e602df0560e01b8152808401869052602490fd5b5090346101b957602080600319360112610b8d57610ac6610ccf565b610ace610d1e565b6001600160a01b03811680865260108352838620805460ff19908116600117909155909490913b15610b4e5750907ff09ba3be2b2384879395cf65ff434b177b3810bbb1829bd988a3c821064086559291848652600f8252828620600182825416179055600e82528286209081541690558482519160018352820152a280f35b835162461bcd60e51b815290810183905260196024820152781059191c995cdcc81a5cc81b9bdd08184818dbdb9d1c9858dd603a1b6044820152606490fd5b8380fd5b84915083346101b957826003193601126101b95782600354600181811c90808316928315610c7c575b60209384841081146104d757838852908115610c605750600114610c0a57505050829003601f01601f191682019267ffffffffffffffff841183851017610453575082918261044f925282610c86565b600387529192508591837fc2575a0e9e593c00f959f8c92f12db2869c3395a3b0502d05e2516446f71f85b5b838510610c4c575050505083010185808061041d565b805488860183015293019284908201610c36565b60ff1916878501525050151560051b840101905085808061041d565b91607f1691610bba565b6020808252825181830181905290939260005b828110610cbb57505060409293506000838284010152601f8019910116010190565b818101860151848201604001528501610c99565b600435906001600160a01b0382168203610ce557565b600080fd5b602435906001600160a01b0382168203610ce557565b600435908115158203610ce557565b602435908115158203610ce557565b6005546001600160a01b03163303610d3257565b60405163118cdaa760e01b8152336004820152602490fd5b91906001600160a01b0380841615610d8757811615610d6e57610d6c92610da0565b565b60405163ec442f0560e01b815260006004820152602490fd5b604051634b637e8f60e11b815260006004820152602490fd5b6005546001600160a01b03939291908416818516818114918215610ee6575b508115610ecd575b508015610eb3575b8015610ea6575b610e9c5760ff600d5460081c16610e645760ff60055460a01c1615610e2957610d6c9360ff60095416610e0a575b50610f15565b82166000526000602052610e2360406000205484611012565b38610e04565b60405162461bcd60e51b8152602060048201526013602482015272151c98591a5b99c81b9bdd08195b98589b1959606a1b6044820152606490fd5b60405162461bcd60e51b815260206004820152601060248201526f151c985b9cd9995c9cc81c185d5cd95960821b6044820152606490fd5b610d6c9350610f15565b5060ff6008541615610dd6565b50838216600052601060205260ff60406000205416610dcf565b9050600052601060205260ff6040600020541638610dc7565b84871614915038610dbf565b91908201809211610eff57565b634e487b7160e01b600052601160045260246000fd5b6001600160a01b0380821692909183610f8f57507fddf252ad1be2c89b69c2b068fc378daa952ba7f163c4a11628f55a4df523b3ef91602091610f5a86600254610ef2565b6002555b169384610f775780600254036002555b604051908152a3565b84600052600082526040600020818154019055610f6e565b60009084825281602052604082205490868210610fe057509181604087602095887fddf252ad1be2c89b69c2b068fc378daa952ba7f163c4a11628f55a4df523b3ef98965283875203912055610f5e565b60405163391434e360e21b81526001600160a01b03919091166004820152602481019190915260448101869052606490fd5b60ff60095416156110ce57600a54811161107e5761102f91610ef2565b600b541061103957565b60405162461bcd60e51b815260206004820152601d60248201527f5472616e7366657220657863656564732077616c6c6574206c696d69740000006044820152606490fd5b60405162461bcd60e51b815260206004820152602260248201527f5472616e736665722065786365656473207472616e73616374696f6e206c696d6044820152611a5d60f21b6064820152608490fd5b505056fea2646970667358221220444f7c9b453ef3785ad0103764fc83582cf3f1490dee77a3ab74c14cf8f3669764736f6c63430008140033ddf252ad1be2c89b69c2b068fc378daa952ba7f163c4a11628f55a4df523b3ef",
  "devdoc": {
    "errors": {
      "ERC20InsufficientAllowance(address,uint256,uint256)": [
        {
          "details": "Indicates a failure with the `spender`s `allowance`. Used in transfers.",
          "params": {
            "allowance": "Amount of tokens a `spender` is allowed to operate with.",
            "needed": "Minimum amount required to perform a transfer.",
            "spender": "Address that may be allowed to operate on tokens without being their owner."
          }
        }
      ],
      "ERC20InsufficientBalance(address,uint256,uint256)": [
        {
          "details": "Indicates an error related to the current `balance` of a `sender`. Used in transfers.",
          "params": {
            "balance": "Current balance for the interacting account.",
            "needed": "Minimum amount required to perform a transfer.",
            "sender": "Address whose tokens are being transferred."
          }
        }
      ],
      "ERC20InvalidApprover(address)": [
        {
          "details": "Indicates a failure with the `approver` of a token to be approved. Used in approvals.",
          "params": {
            "approver": "Address initiating an approval operation."
          }
        }
      ],
      "ERC20InvalidReceiver(address)": [
        {
          "details": "Indicates a failure with the token `receiver`. Used in transfers.",
          "params": {
            "receiver": "Address to which tokens are being transferred."
          }
        }
      ],
      "ERC20InvalidSender(address)": [
        {
          "details": "Indicates a failure with the token `sender`. Used in transfers.",
          "params": {
            "sender": "Address whose tokens are being transferred."
          }
        }
      ],
      "ERC20InvalidSpender(address)": [
        {
          "details": "Indicates a failure with the `spender` to be approved. Used in approvals.",
          "params": {
            "spender": "Address that may be allowed to operate on tokens without being their owner."
          }
        }
      ],
      "OwnableInvalidOwner(address)": [
        {
          "details": "The owner is not a valid owner account. (eg. `address(0)`)"
        }
      ],
      "OwnableUnauthorizedAccount(address)": [
        {
          "details": "The caller account is not authorized to perform an operation."
        }
      ]
    },
    "events": {
      "Approval(address,address,uint256)": {
        "details": "Emitted when the allowance of a `spender` for an `owner` is set by a call to {approve}. `value` is the new allowance."
      },
      "Transfer(address,address,uint256)": {
        "details": "Emitted when `value` tokens are moved from one account (`from`) to another (`to`). Note that `value` may be zero."
      }
    },
    "kind": "dev",
    "methods": {
      "allowance(address,address)": {
        "details": "See {IERC20-allowance}."
      },
      "approve(address,uint256)": {
        "details": "See {IERC20-approve}. NOTE: If `value` is the maximum `uint256`, the allowance is not updated on `transferFrom`. This is semantically equivalent to an infinite approval. Requirements: - `spender` cannot be the zero address."
      },
      "balanceOf(address)": {
        "details": "See {IERC20-balanceOf}."
      },
      "decimals()": {
        "details": "Returns the number of decimals used to get its user representation. For example, if `decimals` equals `2`, a balance of `505` tokens should be displayed to a user as `5.05` (`505 / 10 ** 2`). Tokens usually opt for a value of 18, imitating the relationship between Ether and Wei. This is the default value returned by this function, unless it's overridden. NOTE: This information is only used for _display_ purposes: it in no way affects any of the arithmetic of the contract, including {IERC20-balanceOf} and {IERC20-transfer}."
      },
      "name()": {
        "details": "Returns the name of the token."
      },
      "owner()": {
        "details": "Returns the address of the current owner."
      },
      "renounceOwnership()": {
        "details": "Leaves the contract without owner. It will not be possible to call `onlyOwner` functions. Can only be called by the current owner. NOTE: Renouncing ownership will leave the contract without an owner, thereby disabling any functionality that is only available to the owner."
      },
      "symbol()": {
        "details": "Returns the symbol of the token, usually a shorter version of the name."
      },
      "totalSupply()": {
        "details": "See {IERC20-totalSupply}."
      },
      "transfer(address,uint256)": {
        "details": "See {IERC20-transfer}. Requirements: - `to` cannot be the zero address. - the caller must have a balance of at least `value`."
      },
      "transferFrom(address,address,uint256)": {
        "details": "See {IERC20-transferFrom}. Skips emitting an {Approval} event indicating an allowance update. This is not required by the ERC. See {xref-ERC20-_approve-address-address-uint256-bool-}[_approve]. NOTE: Does not update the allowance if the current allowance is the maximum `uint256`. Requirements: - `from` and `to` cannot be the zero address. - `from` must have a balance of at least `value`. - the caller must have allowance for ``from``'s tokens of at least `value`."
      },
      "transferOwnership(address)": {
        "details": "Transfers ownership of the contract to a new account (`newOwner`). Can only be called by the current owner."
      }
    },
    "version": 1
  },
  "userdoc": {
    "kind": "user",
    "methods": {},
    "version": 1
  },
  "storageLayout": {
    "storage": [
      {
        "astId": 307,
        "contract": "contracts/core/TokenTemplate.sol:TokenTemplate",
        "label": "_balances",
        "offset": 0,
        "slot": "0",
        "type": "t_mapping(t_address,t_uint256)"
      },
      {
        "astId": 313,
        "contract": "contracts/core/TokenTemplate.sol:TokenTemplate",
        "label": "_allowances",
        "offset": 0,
        "slot": "1",
        "type": "t_mapping(t_address,t_mapping(t_address,t_uint256))"
      },
      {
        "astId": 315,
        "contract": "contracts/core/TokenTemplate.sol:TokenTemplate",
        "label": "_totalSupply",
        "offset": 0,
        "slot": "2",
        "type": "t_uint256"
      },
      {
        "astId": 317,
        "contract": "contracts/core/TokenTemplate.sol:TokenTemplate",
        "label": "_name",
        "offset": 0,
        "slot": "3",
        "type": "t_string_storage"
      },
      {
        "astId": 319,
        "contract": "contracts/core/TokenTemplate.sol:TokenTemplate",
        "label": "_symbol",
        "offset": 0,
        "slot": "4",
        "type": "t_string_storage"
      },
      {
        "astId": 8,
        "contract": "contracts/core/TokenTemplate.sol:TokenTemplate",
        "label": "_owner",
        "offset": 0,
        "slot": "5",
        "type": "t_address"
      },
      {
        "astId": 1810,
        "contract": "contracts/core/TokenTemplate.sol:TokenTemplate",
        "label": "tradingEnabled",
        "offset": 20,
        "slot": "5",
        "type": "t_bool"
      },
      {
        "astId": 1812,
        "contract": "contracts/core/TokenTemplate.sol:TokenTemplate",
        "label": "launchTime",
        "offset": 0,
        "slot": "6",
        "type": "t_uint256"
      },
      {
        "astId": 1814,
        "contract": "contracts/core/TokenTemplate.sol:TokenTemplate",
        "label": "launchBlock",
        "offset": 0,
        "slot": "7",
        "type": "t_uint256"
      },
      {
        "astId": 1816,
        "contract": "contracts/core/TokenTemplate.sol:TokenTemplate",
        "label": "_initialDistributionComplete",
        "offset": 0,
        "slot": "8",
        "type": "t_bool"
      },
      {
        "astId": 1819,
        "contract": "contracts/core/TokenTemplate.sol:TokenTemplate",
        "label": "_antiBotConfig",
        "offset": 0,
        "slot": "9",
        "type": "t_struct(AntiBotConfig)2277_storage"
      },
      {
        "astId": 1822,
        "contract": "contracts/core/TokenTemplate.sol:TokenTemplate",
        "label": "_securitySettings",
        "offset": 0,
        "slot": "13",
        "type": "t_struct(SecuritySettings)3216_storage"
      },
      {
        "astId": 1826,
        "contract": "contracts/core/TokenTemplate.sol:TokenTemplate",
        "label": "isExcludedFromLimits",
        "offset": 0,
        "slot": "16",
        "type": "t_mapping(t_address,t_bool)"
      }
    ],
    "types": {
      "t_address": {
        "encoding": "inplace",
        "label": "address",
        "numberOfBytes": "20"
      },
      "t_bool": {
        "encoding": "inplace",
        "label": "bool",
        "numberOfBytes": "1"
      },
      "t_mapping(t_address,t_bool)": {
        "encoding": "mapping",
        "key": "t_address",
        "label": "mapping(address => bool)",
        "numberOfBytes": "32",
        "value": "t_bool"
      },
      "t_mapping(t_address,t_mapping(t_address,t_uint256))": {
        "encoding": "mapping",
        "key": "t_address",
        "label": "mapping(address => mapping(address => uint256))",
        "numberOfBytes": "32",
        "value": "t_mapping(t_address,t_uint256)"
      },
      "t_mapping(t_address,t_uint256)": {
        "encoding": "mapping",
        "key": "t_address",
        "label": "mapping(address => uint256)",
        "numberOfBytes": "32",
        "value": "t_uint256"
      },
      "t_string_storage": {
        "encoding": "bytes",
        "label": "string",
        "numberOfBytes": "32"
      },
      "t_struct(AntiBotConfig)2277_storage": {
        "encoding": "inplace",
        "label": "struct AntiBot.AntiBotConfig",
        "members": [
          {
            "astId": 2268,
            "contract": "contracts/core/TokenTemplate.sol:TokenTemplate",
            "label": "enabled",
            "offset": 0,
            "slot": "0",
            "type": "t_bool"
          },
          {
            "astId": 2270,
            "contract": "contracts/core/TokenTemplate.sol:TokenTemplate",
            "label": "maxTxAmount",
            "offset": 0,
            "slot": "1",
            "type": "t_uint256"
          },
          {
            "astId": 2272,
            "contract": "contracts/core/TokenTemplate.sol:TokenTemplate",
            "label": "maxWalletAmount",
            "offset": 0,
            "slot": "2",
            "type": "t_uint256"
          },
          {
            "astId": 2276,
            "contract": "contracts/core/TokenTemplate.sol:TokenTemplate",
            "label": "blacklisted",
            "offset": 0,
            "slot": "3",
            "type": "t_mapping(t_address,t_bool)"
          }
        ],
        "numberOfBytes": "128"
      },
      "t_struct(SecuritySettings)3216_storage": {
        "encoding": "inplace",
        "label": "struct SecurityUtils.SecuritySettings",
        "members": [
          {
            "astId": 3203,
            "contract": "contracts/core/TokenTemplate.sol:TokenTemplate",
            "label": "pausable",
            "offset": 0,
            "slot": "0",
            "type": "t_bool"
          },
          {
            "astId": 3205,
            "contract": "contracts/core/TokenTemplate.sol:TokenTemplate",
            "label": "paused",
            "offset": 1,
            "slot": "0",
            "type": "t_bool"
          },
          {
            "astId": 3207,
            "contract": "contracts/core/TokenTemplate.sol:TokenTemplate",
            "label": "blockContractsByDefault",
            "offset": 2,
            "slot": "0",
            "type": "t_bool"
          },
          {
            "astId": 3211,
            "contract": "contracts/core/TokenTemplate.sol:TokenTemplate",
            "label": "blockedContracts",
            "offset": 0,
            "slot": "1",
            "type": "t_mapping(t_address,t_bool)"
          },
          {
            "astId": 3215,
            "contract": "contracts/core/TokenTemplate.sol:TokenTemplate",
            "label": "trustedContracts",
            "offset": 0,
            "slot": "2",
            "type": "t_mapping(t_address,t_bool)"
          }
        ],
        "numberOfBytes": "96"
      },
      "t_uint256": {
        "encoding": "inplace",
        "label": "uint256",
        "numberOfBytes": "32"
      }
    }
  }
}